{
  "_format": "hh-sol-artifact-1",
  "contractName": "AmyZingerNFTContract",
  "sourceName": "contracts/AmyZingerNFTContract.sol",
  "abi": [
    {
      "inputs": [
        {
          "internalType": "uint256",
          "name": "_mint_price",
          "type": "uint256"
        },
        {
          "internalType": "uint256",
          "name": "_max_tokens",
          "type": "uint256"
        },
        {
          "internalType": "string",
          "name": "_base_uri",
          "type": "string"
        },
        {
          "internalType": "address",
          "name": "_royaltyArtist",
          "type": "address"
        },
        {
          "internalType": "uint96",
          "name": "_royaltyBasis",
          "type": "uint96"
        }
      ],
      "stateMutability": "nonpayable",
      "type": "constructor"
    },
    {
      "inputs": [],
      "name": "AmyZingerNFTContract__MaxSupplyReached",
      "type": "error"
    },
    {
      "inputs": [],
      "name": "AmyZingerNFTContract__ValueNotEqualPrice",
      "type": "error"
    },
    {
      "inputs": [],
      "name": "AmyZingerNFTContract__WrongAvenueForThisTransaction",
      "type": "error"
    },
    {
      "inputs": [
        {
          "internalType": "uint256",
          "name": "numerator",
          "type": "uint256"
        },
        {
          "internalType": "uint256",
          "name": "denominator",
          "type": "uint256"
        }
      ],
      "name": "ERC2981InvalidDefaultRoyalty",
      "type": "error"
    },
    {
      "inputs": [
        {
          "internalType": "address",
          "name": "receiver",
          "type": "address"
        }
      ],
      "name": "ERC2981InvalidDefaultRoyaltyReceiver",
      "type": "error"
    },
    {
      "inputs": [
        {
          "internalType": "uint256",
          "name": "tokenId",
          "type": "uint256"
        },
        {
          "internalType": "uint256",
          "name": "numerator",
          "type": "uint256"
        },
        {
          "internalType": "uint256",
          "name": "denominator",
          "type": "uint256"
        }
      ],
      "name": "ERC2981InvalidTokenRoyalty",
      "type": "error"
    },
    {
      "inputs": [
        {
          "internalType": "uint256",
          "name": "tokenId",
          "type": "uint256"
        },
        {
          "internalType": "address",
          "name": "receiver",
          "type": "address"
        }
      ],
      "name": "ERC2981InvalidTokenRoyaltyReceiver",
      "type": "error"
    },
    {
      "inputs": [],
      "name": "ERC721EnumerableForbiddenBatchMint",
      "type": "error"
    },
    {
      "inputs": [
        {
          "internalType": "address",
          "name": "sender",
          "type": "address"
        },
        {
          "internalType": "uint256",
          "name": "tokenId",
          "type": "uint256"
        },
        {
          "internalType": "address",
          "name": "owner",
          "type": "address"
        }
      ],
      "name": "ERC721IncorrectOwner",
      "type": "error"
    },
    {
      "inputs": [
        {
          "internalType": "address",
          "name": "operator",
          "type": "address"
        },
        {
          "internalType": "uint256",
          "name": "tokenId",
          "type": "uint256"
        }
      ],
      "name": "ERC721InsufficientApproval",
      "type": "error"
    },
    {
      "inputs": [
        {
          "internalType": "address",
          "name": "approver",
          "type": "address"
        }
      ],
      "name": "ERC721InvalidApprover",
      "type": "error"
    },
    {
      "inputs": [
        {
          "internalType": "address",
          "name": "operator",
          "type": "address"
        }
      ],
      "name": "ERC721InvalidOperator",
      "type": "error"
    },
    {
      "inputs": [
        {
          "internalType": "address",
          "name": "owner",
          "type": "address"
        }
      ],
      "name": "ERC721InvalidOwner",
      "type": "error"
    },
    {
      "inputs": [
        {
          "internalType": "address",
          "name": "receiver",
          "type": "address"
        }
      ],
      "name": "ERC721InvalidReceiver",
      "type": "error"
    },
    {
      "inputs": [
        {
          "internalType": "address",
          "name": "sender",
          "type": "address"
        }
      ],
      "name": "ERC721InvalidSender",
      "type": "error"
    },
    {
      "inputs": [
        {
          "internalType": "uint256",
          "name": "tokenId",
          "type": "uint256"
        }
      ],
      "name": "ERC721NonexistentToken",
      "type": "error"
    },
    {
      "inputs": [
        {
          "internalType": "address",
          "name": "owner",
          "type": "address"
        },
        {
          "internalType": "uint256",
          "name": "index",
          "type": "uint256"
        }
      ],
      "name": "ERC721OutOfBoundsIndex",
      "type": "error"
    },
    {
      "inputs": [
        {
          "internalType": "address",
          "name": "owner",
          "type": "address"
        }
      ],
      "name": "OwnableInvalidOwner",
      "type": "error"
    },
    {
      "inputs": [
        {
          "internalType": "address",
          "name": "account",
          "type": "address"
        }
      ],
      "name": "OwnableUnauthorizedAccount",
      "type": "error"
    },
    {
      "inputs": [],
      "name": "ReentrancyGuardReentrantCall",
      "type": "error"
    },
    {
      "anonymous": false,
      "inputs": [
        {
          "indexed": true,
          "internalType": "address",
          "name": "owner",
          "type": "address"
        },
        {
          "indexed": true,
          "internalType": "address",
          "name": "approved",
          "type": "address"
        },
        {
          "indexed": true,
          "internalType": "uint256",
          "name": "tokenId",
          "type": "uint256"
        }
      ],
      "name": "Approval",
      "type": "event"
    },
    {
      "anonymous": false,
      "inputs": [
        {
          "indexed": true,
          "internalType": "address",
          "name": "owner",
          "type": "address"
        },
        {
          "indexed": true,
          "internalType": "address",
          "name": "operator",
          "type": "address"
        },
        {
          "indexed": false,
          "internalType": "bool",
          "name": "approved",
          "type": "bool"
        }
      ],
      "name": "ApprovalForAll",
      "type": "event"
    },
    {
      "anonymous": false,
      "inputs": [
        {
          "indexed": false,
          "internalType": "uint256",
          "name": "_fromTokenId",
          "type": "uint256"
        },
        {
          "indexed": false,
          "internalType": "uint256",
          "name": "_toTokenId",
          "type": "uint256"
        }
      ],
      "name": "BatchMetadataUpdate",
      "type": "event"
    },
    {
      "anonymous": false,
      "inputs": [
        {
          "indexed": false,
          "internalType": "address",
          "name": "owner",
          "type": "address"
        },
        {
          "indexed": false,
          "internalType": "uint256",
          "name": "amount",
          "type": "uint256"
        }
      ],
      "name": "FundsDistributed",
      "type": "event"
    },
    {
      "anonymous": false,
      "inputs": [
        {
          "indexed": false,
          "internalType": "uint256",
          "name": "_tokenId",
          "type": "uint256"
        }
      ],
      "name": "MetadataUpdate",
      "type": "event"
    },
    {
      "anonymous": false,
      "inputs": [
        {
          "indexed": false,
          "internalType": "uint256",
          "name": "tokenId",
          "type": "uint256"
        },
        {
          "indexed": false,
          "internalType": "address",
          "name": "owner",
          "type": "address"
        }
      ],
      "name": "MintingCompleted",
      "type": "event"
    },
    {
      "anonymous": false,
      "inputs": [
        {
          "indexed": true,
          "internalType": "address",
          "name": "previousOwner",
          "type": "address"
        },
        {
          "indexed": true,
          "internalType": "address",
          "name": "newOwner",
          "type": "address"
        }
      ],
      "name": "OwnershipTransferred",
      "type": "event"
    },
    {
      "anonymous": false,
      "inputs": [
        {
          "indexed": true,
          "internalType": "address",
          "name": "from",
          "type": "address"
        },
        {
          "indexed": true,
          "internalType": "address",
          "name": "to",
          "type": "address"
        },
        {
          "indexed": true,
          "internalType": "uint256",
          "name": "tokenId",
          "type": "uint256"
        }
      ],
      "name": "Transfer",
      "type": "event"
    },
    {
      "stateMutability": "payable",
      "type": "fallback"
    },
    {
      "inputs": [
        {
          "internalType": "address",
          "name": "to",
          "type": "address"
        },
        {
          "internalType": "uint256",
          "name": "tokenId",
          "type": "uint256"
        }
      ],
      "name": "approve",
      "outputs": [],
      "stateMutability": "nonpayable",
      "type": "function"
    },
    {
      "inputs": [
        {
          "internalType": "address",
          "name": "owner",
          "type": "address"
        }
      ],
      "name": "balanceOf",
      "outputs": [
        {
          "internalType": "uint256",
          "name": "",
          "type": "uint256"
        }
      ],
      "stateMutability": "view",
      "type": "function"
    },
    {
      "inputs": [
        {
          "internalType": "uint256",
          "name": "tokenId",
          "type": "uint256"
        }
      ],
      "name": "burn",
      "outputs": [],
      "stateMutability": "nonpayable",
      "type": "function"
    },
    {
      "inputs": [],
      "name": "contractURI",
      "outputs": [
        {
          "internalType": "string",
          "name": "",
          "type": "string"
        }
      ],
      "stateMutability": "view",
      "type": "function"
    },
    {
      "inputs": [
        {
          "internalType": "uint256",
          "name": "tokenId",
          "type": "uint256"
        }
      ],
      "name": "getApproved",
      "outputs": [
        {
          "internalType": "address",
          "name": "",
          "type": "address"
        }
      ],
      "stateMutability": "view",
      "type": "function"
    },
    {
      "inputs": [],
      "name": "getBaseURI",
      "outputs": [
        {
          "internalType": "string",
          "name": "",
          "type": "string"
        }
      ],
      "stateMutability": "view",
      "type": "function"
    },
    {
      "inputs": [],
      "name": "getMaxSupply",
      "outputs": [
        {
          "internalType": "uint256",
          "name": "",
          "type": "uint256"
        }
      ],
      "stateMutability": "view",
      "type": "function"
    },
    {
      "inputs": [],
      "name": "getMintPrice",
      "outputs": [
        {
          "internalType": "uint256",
          "name": "",
          "type": "uint256"
        }
      ],
      "stateMutability": "view",
      "type": "function"
    },
    {
      "inputs": [
        {
          "internalType": "address",
          "name": "owner",
          "type": "address"
        },
        {
          "internalType": "address",
          "name": "operator",
          "type": "address"
        }
      ],
      "name": "isApprovedForAll",
      "outputs": [
        {
          "internalType": "bool",
          "name": "",
          "type": "bool"
        }
      ],
      "stateMutability": "view",
      "type": "function"
    },
    {
      "inputs": [
        {
          "internalType": "string",
          "name": "uri",
          "type": "string"
        }
      ],
      "name": "mintTo",
      "outputs": [
        {
          "internalType": "uint256",
          "name": "",
          "type": "uint256"
        }
      ],
      "stateMutability": "payable",
      "type": "function"
    },
    {
      "inputs": [],
      "name": "name",
      "outputs": [
        {
          "internalType": "string",
          "name": "",
          "type": "string"
        }
      ],
      "stateMutability": "view",
      "type": "function"
    },
    {
      "inputs": [],
      "name": "owner",
      "outputs": [
        {
          "internalType": "address",
          "name": "",
          "type": "address"
        }
      ],
      "stateMutability": "view",
      "type": "function"
    },
    {
      "inputs": [
        {
          "internalType": "uint256",
          "name": "tokenId",
          "type": "uint256"
        }
      ],
      "name": "ownerOf",
      "outputs": [
        {
          "internalType": "address",
          "name": "",
          "type": "address"
        }
      ],
      "stateMutability": "view",
      "type": "function"
    },
    {
      "inputs": [],
      "name": "renounceOwnership",
      "outputs": [],
      "stateMutability": "nonpayable",
      "type": "function"
    },
    {
      "inputs": [
        {
          "internalType": "uint256",
          "name": "tokenId",
          "type": "uint256"
        },
        {
          "internalType": "uint256",
          "name": "salePrice",
          "type": "uint256"
        }
      ],
      "name": "royaltyInfo",
      "outputs": [
        {
          "internalType": "address",
          "name": "",
          "type": "address"
        },
        {
          "internalType": "uint256",
          "name": "",
          "type": "uint256"
        }
      ],
      "stateMutability": "view",
      "type": "function"
    },
    {
      "inputs": [
        {
          "internalType": "address",
          "name": "from",
          "type": "address"
        },
        {
          "internalType": "address",
          "name": "to",
          "type": "address"
        },
        {
          "internalType": "uint256",
          "name": "tokenId",
          "type": "uint256"
        }
      ],
      "name": "safeTransferFrom",
      "outputs": [],
      "stateMutability": "nonpayable",
      "type": "function"
    },
    {
      "inputs": [
        {
          "internalType": "address",
          "name": "from",
          "type": "address"
        },
        {
          "internalType": "address",
          "name": "to",
          "type": "address"
        },
        {
          "internalType": "uint256",
          "name": "tokenId",
          "type": "uint256"
        },
        {
          "internalType": "bytes",
          "name": "data",
          "type": "bytes"
        }
      ],
      "name": "safeTransferFrom",
      "outputs": [],
      "stateMutability": "nonpayable",
      "type": "function"
    },
    {
      "inputs": [
        {
          "internalType": "address",
          "name": "operator",
          "type": "address"
        },
        {
          "internalType": "bool",
          "name": "approved",
          "type": "bool"
        }
      ],
      "name": "setApprovalForAll",
      "outputs": [],
      "stateMutability": "nonpayable",
      "type": "function"
    },
    {
      "inputs": [
        {
          "internalType": "address",
          "name": "_receiver",
          "type": "address"
        },
        {
          "internalType": "uint96",
          "name": "feeNumerator",
          "type": "uint96"
        }
      ],
      "name": "setRoyalty",
      "outputs": [],
      "stateMutability": "nonpayable",
      "type": "function"
    },
    {
      "inputs": [
        {
          "internalType": "bytes4",
          "name": "interfaceId",
          "type": "bytes4"
        }
      ],
      "name": "supportsInterface",
      "outputs": [
        {
          "internalType": "bool",
          "name": "",
          "type": "bool"
        }
      ],
      "stateMutability": "view",
      "type": "function"
    },
    {
      "inputs": [],
      "name": "symbol",
      "outputs": [
        {
          "internalType": "string",
          "name": "",
          "type": "string"
        }
      ],
      "stateMutability": "view",
      "type": "function"
    },
    {
      "inputs": [
        {
          "internalType": "uint256",
          "name": "index",
          "type": "uint256"
        }
      ],
      "name": "tokenByIndex",
      "outputs": [
        {
          "internalType": "uint256",
          "name": "",
          "type": "uint256"
        }
      ],
      "stateMutability": "view",
      "type": "function"
    },
    {
      "inputs": [
        {
          "internalType": "address",
          "name": "owner",
          "type": "address"
        },
        {
          "internalType": "uint256",
          "name": "index",
          "type": "uint256"
        }
      ],
      "name": "tokenOfOwnerByIndex",
      "outputs": [
        {
          "internalType": "uint256",
          "name": "",
          "type": "uint256"
        }
      ],
      "stateMutability": "view",
      "type": "function"
    },
    {
      "inputs": [
        {
          "internalType": "uint256",
          "name": "tokenId",
          "type": "uint256"
        }
      ],
      "name": "tokenURI",
      "outputs": [
        {
          "internalType": "string",
          "name": "",
          "type": "string"
        }
      ],
      "stateMutability": "view",
      "type": "function"
    },
    {
      "inputs": [],
      "name": "totalSupply",
      "outputs": [
        {
          "internalType": "uint256",
          "name": "",
          "type": "uint256"
        }
      ],
      "stateMutability": "view",
      "type": "function"
    },
    {
      "inputs": [
        {
          "internalType": "address",
          "name": "from",
          "type": "address"
        },
        {
          "internalType": "address",
          "name": "to",
          "type": "address"
        },
        {
          "internalType": "uint256",
          "name": "tokenId",
          "type": "uint256"
        }
      ],
      "name": "transferFrom",
      "outputs": [],
      "stateMutability": "nonpayable",
      "type": "function"
    },
    {
      "inputs": [
        {
          "internalType": "address",
          "name": "newOwner",
          "type": "address"
        }
      ],
      "name": "transferOwnership",
      "outputs": [],
      "stateMutability": "nonpayable",
      "type": "function"
    },
    {
      "stateMutability": "payable",
      "type": "receive"
    }
  ],
  "bytecode": "0x60e06040523480156200001157600080fd5b5060405162004318380380620043188339818101604052810190620000379190620006c7565b336040518060400160405280601481526020017f416d795a696e6765724e4654436f6e74726163740000000000000000000000008152506040518060400160405280600281526020017f415a0000000000000000000000000000000000000000000000000000000000008152508160029081620000b59190620009af565b508060039081620000c79190620009af565b505050600073ffffffffffffffffffffffffffffffffffffffff168173ffffffffffffffffffffffffffffffffffffffff16036200013f5760006040517f1e4fbdf700000000000000000000000000000000000000000000000000000000815260040162000136919062000aa7565b60405180910390fd5b6200015081620001cc60201b60201c565b506001600e8190555084608081815250508360a0818152505082601090816200017a9190620009af565b506200018d82826200029260201b60201c565b3373ffffffffffffffffffffffffffffffffffffffff1660c08173ffffffffffffffffffffffffffffffffffffffff1681525050505050505062000b3b565b6000600d60009054906101000a900473ffffffffffffffffffffffffffffffffffffffff16905081600d60006101000a81548173ffffffffffffffffffffffffffffffffffffffff021916908373ffffffffffffffffffffffffffffffffffffffff1602179055508173ffffffffffffffffffffffffffffffffffffffff168173ffffffffffffffffffffffffffffffffffffffff167f8be0079c531659141344cd1fd0a4f28419497f9722a3daafe3b4186f6b6457e060405160405180910390a35050565b6000620002a46200044160201b60201c565b6bffffffffffffffffffffffff16905080826bffffffffffffffffffffffff1611156200030c5781816040517f6f483d090000000000000000000000000000000000000000000000000000000081526004016200030392919062000b0e565b60405180910390fd5b600073ffffffffffffffffffffffffffffffffffffffff168373ffffffffffffffffffffffffffffffffffffffff1603620003815760006040517fb6d9900a00000000000000000000000000000000000000000000000000000000815260040162000378919062000aa7565b60405180910390fd5b60405180604001604052808473ffffffffffffffffffffffffffffffffffffffff168152602001836bffffffffffffffffffffffff168152506000808201518160000160006101000a81548173ffffffffffffffffffffffffffffffffffffffff021916908373ffffffffffffffffffffffffffffffffffffffff16021790555060208201518160000160146101000a8154816bffffffffffffffffffffffff02191690836bffffffffffffffffffffffff160217905550905050505050565b6000612710905090565b6000604051905090565b600080fd5b600080fd5b6000819050919050565b62000474816200045f565b81146200048057600080fd5b50565b600081519050620004948162000469565b92915050565b600080fd5b600080fd5b6000601f19601f8301169050919050565b7f4e487b7100000000000000000000000000000000000000000000000000000000600052604160045260246000fd5b620004ef82620004a4565b810181811067ffffffffffffffff82111715620005115762000510620004b5565b5b80604052505050565b6000620005266200044b565b9050620005348282620004e4565b919050565b600067ffffffffffffffff821115620005575762000556620004b5565b5b6200056282620004a4565b9050602081019050919050565b60005b838110156200058f57808201518184015260208101905062000572565b60008484015250505050565b6000620005b2620005ac8462000539565b6200051a565b905082815260208101848484011115620005d157620005d06200049f565b5b620005de8482856200056f565b509392505050565b600082601f830112620005fe57620005fd6200049a565b5b8151620006108482602086016200059b565b91505092915050565b600073ffffffffffffffffffffffffffffffffffffffff82169050919050565b6000620006468262000619565b9050919050565b620006588162000639565b81146200066457600080fd5b50565b60008151905062000678816200064d565b92915050565b60006bffffffffffffffffffffffff82169050919050565b620006a1816200067e565b8114620006ad57600080fd5b50565b600081519050620006c18162000696565b92915050565b600080600080600060a08688031215620006e657620006e562000455565b5b6000620006f68882890162000483565b9550506020620007098882890162000483565b945050604086015167ffffffffffffffff8111156200072d576200072c6200045a565b5b6200073b88828901620005e6565b93505060606200074e8882890162000667565b92505060806200076188828901620006b0565b9150509295509295909350565b600081519050919050565b7f4e487b7100000000000000000000000000000000000000000000000000000000600052602260045260246000fd5b60006002820490506001821680620007c157607f821691505b602082108103620007d757620007d662000779565b5b50919050565b60008190508160005260206000209050919050565b60006020601f8301049050919050565b600082821b905092915050565b600060088302620008417fffffffffffffffffffffffffffffffffffffffffffffffffffffffffffffffff8262000802565b6200084d868362000802565b95508019841693508086168417925050509392505050565b6000819050919050565b6000620008906200088a62000884846200045f565b62000865565b6200045f565b9050919050565b6000819050919050565b620008ac836200086f565b620008c4620008bb8262000897565b8484546200080f565b825550505050565b600090565b620008db620008cc565b620008e8818484620008a1565b505050565b5b81811015620009105762000904600082620008d1565b600181019050620008ee565b5050565b601f8211156200095f576200092981620007dd565b6200093484620007f2565b8101602085101562000944578190505b6200095c6200095385620007f2565b830182620008ed565b50505b505050565b600082821c905092915050565b6000620009846000198460080262000964565b1980831691505092915050565b60006200099f838362000971565b9150826002028217905092915050565b620009ba826200076e565b67ffffffffffffffff811115620009d657620009d5620004b5565b5b620009e28254620007a8565b620009ef82828562000914565b600060209050601f83116001811462000a27576000841562000a12578287015190505b62000a1e858262000991565b86555062000a8e565b601f19841662000a3786620007dd565b60005b8281101562000a615784890151825560018201915060208501945060208101905062000a3a565b8683101562000a81578489015162000a7d601f89168262000971565b8355505b6001600288020188555050505b505050505050565b62000aa18162000639565b82525050565b600060208201905062000abe600083018462000a96565b92915050565b600062000ae562000adf62000ad9846200067e565b62000865565b6200045f565b9050919050565b62000af78162000ac4565b82525050565b62000b08816200045f565b82525050565b600060408201905062000b25600083018562000aec565b62000b34602083018462000afd565b9392505050565b60805160a05160c05161379862000b806000396000818161093201526109ba01526000818161080c0152610e21015260008181610865015261111901526137986000f3fe6080604052600436106101a05760003560e01c80636352211e116100ec578063a22cb4651161008a578063c87b56dd11610064578063c87b56dd14610648578063e8a3d48514610685578063e985e9c5146106b0578063f2fde38b146106ed576101d7565b8063a22cb465146105cb578063a7f93ebd146105f4578063b88d4fde1461061f576101d7565b8063715018a6116100c6578063715018a6146105355780638da5cb5b1461054c5780638f2fc60b1461057757806395d89b41146105a0576101d7565b80636352211e1461049057806370a08231146104cd578063714c53981461050a576101d7565b806323b872dd1161015957806342842e0e1161013357806342842e0e146103d657806342966c68146103ff5780634c0f38c2146104285780634f6ccce714610453576101d7565b806323b872dd146103325780632a55205a1461035b5780632f745c5914610399576101d7565b806301ffc9a71461020957806306fdde0314610246578063081812fc14610271578063095ea7b3146102ae57806318160ddd146102d757806318b9948d14610302576101d7565b366101d7576040517f6b41730200000000000000000000000000000000000000000000000000000000815260040160405180910390fd5b6040517f6b41730200000000000000000000000000000000000000000000000000000000815260040160405180910390fd5b34801561021557600080fd5b50610230600480360381019061022b9190612979565b610716565b60405161023d91906129c1565b60405180910390f35b34801561025257600080fd5b5061025b610728565b6040516102689190612a6c565b60405180910390f35b34801561027d57600080fd5b5061029860048036038101906102939190612ac4565b6107ba565b6040516102a59190612b32565b60405180910390f35b3480156102ba57600080fd5b506102d560048036038101906102d09190612b79565b6107d6565b005b3480156102e357600080fd5b506102ec6107ec565b6040516102f99190612bc8565b60405180910390f35b61031c60048036038101906103179190612c48565b6107f9565b6040516103299190612bc8565b60405180910390f35b34801561033e57600080fd5b5061035960048036038101906103549190612c95565b610a51565b005b34801561036757600080fd5b50610382600480360381019061037d9190612ce8565b610b53565b604051610390929190612d28565b60405180910390f35b3480156103a557600080fd5b506103c060048036038101906103bb9190612b79565b610d3d565b6040516103cd9190612bc8565b60405180910390f35b3480156103e257600080fd5b506103fd60048036038101906103f89190612c95565b610de6565b005b34801561040b57600080fd5b5061042660048036038101906104219190612ac4565b610e06565b005b34801561043457600080fd5b5061043d610e1d565b60405161044a9190612bc8565b60405180910390f35b34801561045f57600080fd5b5061047a60048036038101906104759190612ac4565b610e45565b6040516104879190612bc8565b60405180910390f35b34801561049c57600080fd5b506104b760048036038101906104b29190612ac4565b610ebb565b6040516104c49190612b32565b60405180910390f35b3480156104d957600080fd5b506104f460048036038101906104ef9190612d51565b610ecd565b6040516105019190612bc8565b60405180910390f35b34801561051657600080fd5b5061051f610f87565b60405161052c9190612a6c565b60405180910390f35b34801561054157600080fd5b5061054a611019565b005b34801561055857600080fd5b5061056161102d565b60405161056e9190612b32565b60405180910390f35b34801561058357600080fd5b5061059e60048036038101906105999190612dc2565b611057565b005b3480156105ac57600080fd5b506105b561106d565b6040516105c29190612a6c565b60405180910390f35b3480156105d757600080fd5b506105f260048036038101906105ed9190612e2e565b6110ff565b005b34801561060057600080fd5b50610609611115565b6040516106169190612bc8565b60405180910390f35b34801561062b57600080fd5b5061064660048036038101906106419190612f9e565b61113d565b005b34801561065457600080fd5b5061066f600480360381019061066a9190612ac4565b61115a565b60405161067c9190612a6c565b60405180910390f35b34801561069157600080fd5b5061069a6111f8565b6040516106a79190612a6c565b60405180910390f35b3480156106bc57600080fd5b506106d760048036038101906106d29190613021565b61128a565b6040516106e491906129c1565b60405180910390f35b3480156106f957600080fd5b50610714600480360381019061070f9190612d51565b61131e565b005b6000610721826113a4565b9050919050565b60606002805461073790613090565b80601f016020809104026020016040519081016040528092919081815260200182805461076390613090565b80156107b05780601f10610785576101008083540402835291602001916107b0565b820191906000526020600020905b81548152906001019060200180831161079357829003601f168201915b5050505050905090565b60006107c5826113b6565b506107cf8261143e565b9050919050565b6107e882826107e361147b565b611483565b5050565b6000600a80549050905090565b6000610803611495565b6000600f5490507f00000000000000000000000000000000000000000000000000000000000000008110610863576040517f1a1fc87400000000000000000000000000000000000000000000000000000000815260040160405180910390fd5b7f000000000000000000000000000000000000000000000000000000000000000034146108bc576040517f36c822d300000000000000000000000000000000000000000000000000000000815260040160405180910390fd5b600f60008154809291906108cf906130f0565b91905055506000600f5490506108e533826114db565b7f19003791b5fbb7a5686dd3ea0edfc0712c3e3dcf415e067038698320ced6d0738133604051610916929190613138565b60405180910390a184846011918261092f929190613318565b507f000000000000000000000000000000000000000000000000000000000000000073ffffffffffffffffffffffffffffffffffffffff166108fc479081150290604051600060405180830381858888f19350505050158015610996573d6000803e3d6000fd5b507f26536799ace2c3dbe12e638ec3ade6b4173dcf1289be0a58d51a5003015649bd7f0000000000000000000000000000000000000000000000000000000000000000346040516109e8929190612d28565b60405180910390a1610a3e8186868080601f016020809104026020016040519081016040528093929190818152602001838380828437600081840152601f19601f820116905080830192505050505050506114f9565b8092505050610a4b611555565b92915050565b600073ffffffffffffffffffffffffffffffffffffffff168273ffffffffffffffffffffffffffffffffffffffff1603610ac35760006040517f64a0ae92000000000000000000000000000000000000000000000000000000008152600401610aba9190612b32565b60405180910390fd5b6000610ad78383610ad261147b565b61155f565b90508373ffffffffffffffffffffffffffffffffffffffff168173ffffffffffffffffffffffffffffffffffffffff1614610b4d578382826040517f64283d7b000000000000000000000000000000000000000000000000000000008152600401610b44939291906133e8565b60405180910390fd5b50505050565b6000806000600160008681526020019081526020016000206040518060400160405290816000820160009054906101000a900473ffffffffffffffffffffffffffffffffffffffff1673ffffffffffffffffffffffffffffffffffffffff1673ffffffffffffffffffffffffffffffffffffffff1681526020016000820160149054906101000a90046bffffffffffffffffffffffff166bffffffffffffffffffffffff166bffffffffffffffffffffffff16815250509050600073ffffffffffffffffffffffffffffffffffffffff16816000015173ffffffffffffffffffffffffffffffffffffffff1603610ce85760006040518060400160405290816000820160009054906101000a900473ffffffffffffffffffffffffffffffffffffffff1673ffffffffffffffffffffffffffffffffffffffff1673ffffffffffffffffffffffffffffffffffffffff1681526020016000820160149054906101000a90046bffffffffffffffffffffffff166bffffffffffffffffffffffff166bffffffffffffffffffffffff168152505090505b6000610cf2611575565b6bffffffffffffffffffffffff1682602001516bffffffffffffffffffffffff1686610d1e919061341f565b610d289190613490565b90508160000151819350935050509250929050565b6000610d4883610ecd565b8210610d8d5782826040517fa57d13dc000000000000000000000000000000000000000000000000000000008152600401610d84929190612d28565b60405180910390fd5b600860008473ffffffffffffffffffffffffffffffffffffffff1673ffffffffffffffffffffffffffffffffffffffff168152602001908152602001600020600083815260200190815260200160002054905092915050565b610e018383836040518060200160405280600081525061113d565b505050565b610e19600082610e1461147b565b61155f565b5050565b60007f0000000000000000000000000000000000000000000000000000000000000000905090565b6000610e4f6107ec565b8210610e95576000826040517fa57d13dc000000000000000000000000000000000000000000000000000000008152600401610e8c929190612d28565b60405180910390fd5b600a8281548110610ea957610ea86134c1565b5b90600052602060002001549050919050565b6000610ec6826113b6565b9050919050565b60008073ffffffffffffffffffffffffffffffffffffffff168273ffffffffffffffffffffffffffffffffffffffff1603610f405760006040517f89c62b64000000000000000000000000000000000000000000000000000000008152600401610f379190612b32565b60405180910390fd5b600560008373ffffffffffffffffffffffffffffffffffffffff1673ffffffffffffffffffffffffffffffffffffffff168152602001908152602001600020549050919050565b606060108054610f9690613090565b80601f0160208091040260200160405190810160405280929190818152602001828054610fc290613090565b801561100f5780601f10610fe45761010080835404028352916020019161100f565b820191906000526020600020905b815481529060010190602001808311610ff257829003601f168201915b5050505050905090565b61102161157f565b61102b6000611606565b565b6000600d60009054906101000a900473ffffffffffffffffffffffffffffffffffffffff16905090565b61105f61157f565b61106982826116cc565b5050565b60606003805461107c90613090565b80601f01602080910402602001604051908101604052809291908181526020018280546110a890613090565b80156110f55780601f106110ca576101008083540402835291602001916110f5565b820191906000526020600020905b8154815290600101906020018083116110d857829003601f168201915b5050505050905090565b61111161110a61147b565b838361186d565b5050565b60007f0000000000000000000000000000000000000000000000000000000000000000905090565b611148848484610a51565b611154848484846119dc565b50505050565b6060611165826113b6565b506011805461117390613090565b80601f016020809104026020016040519081016040528092919081815260200182805461119f90613090565b80156111ec5780601f106111c1576101008083540402835291602001916111ec565b820191906000526020600020905b8154815290600101906020018083116111cf57829003601f168201915b50505050509050919050565b60606010805461120790613090565b80601f016020809104026020016040519081016040528092919081815260200182805461123390613090565b80156112805780601f1061125557610100808354040283529160200191611280565b820191906000526020600020905b81548152906001019060200180831161126357829003601f168201915b5050505050905090565b6000600760008473ffffffffffffffffffffffffffffffffffffffff1673ffffffffffffffffffffffffffffffffffffffff16815260200190815260200160002060008373ffffffffffffffffffffffffffffffffffffffff1673ffffffffffffffffffffffffffffffffffffffff16815260200190815260200160002060009054906101000a900460ff16905092915050565b61132661157f565b600073ffffffffffffffffffffffffffffffffffffffff168173ffffffffffffffffffffffffffffffffffffffff16036113985760006040517f1e4fbdf700000000000000000000000000000000000000000000000000000000815260040161138f9190612b32565b60405180910390fd5b6113a181611606565b50565b60006113af82611b93565b9050919050565b6000806113c283611bf4565b9050600073ffffffffffffffffffffffffffffffffffffffff168173ffffffffffffffffffffffffffffffffffffffff160361143557826040517f7e27328900000000000000000000000000000000000000000000000000000000815260040161142c9190612bc8565b60405180910390fd5b80915050919050565b60006006600083815260200190815260200160002060009054906101000a900473ffffffffffffffffffffffffffffffffffffffff169050919050565b600033905090565b6114908383836001611c31565b505050565b6002600e54036114d1576040517f3ee5aeb500000000000000000000000000000000000000000000000000000000815260040160405180910390fd5b6002600e81905550565b6114f5828260405180602001604052806000815250611df6565b5050565b80600c6000848152602001908152602001600020908161151991906134f0565b507ff8e1a15aba9398e019f0b49df1a4fde98ee17ae345cb5f6b5e2c27f5033e8ce7826040516115499190612bc8565b60405180910390a15050565b6001600e81905550565b600061156c848484611e12565b90509392505050565b6000612710905090565b61158761147b565b73ffffffffffffffffffffffffffffffffffffffff166115a561102d565b73ffffffffffffffffffffffffffffffffffffffff1614611604576115c861147b565b6040517f118cdaa70000000000000000000000000000000000000000000000000000000081526004016115fb9190612b32565b60405180910390fd5b565b6000600d60009054906101000a900473ffffffffffffffffffffffffffffffffffffffff16905081600d60006101000a81548173ffffffffffffffffffffffffffffffffffffffff021916908373ffffffffffffffffffffffffffffffffffffffff1602179055508173ffffffffffffffffffffffffffffffffffffffff168173ffffffffffffffffffffffffffffffffffffffff167f8be0079c531659141344cd1fd0a4f28419497f9722a3daafe3b4186f6b6457e060405160405180910390a35050565b60006116d6611575565b6bffffffffffffffffffffffff16905080826bffffffffffffffffffffffff16111561173b5781816040517f6f483d090000000000000000000000000000000000000000000000000000000081526004016117329291906135f3565b60405180910390fd5b600073ffffffffffffffffffffffffffffffffffffffff168373ffffffffffffffffffffffffffffffffffffffff16036117ad5760006040517fb6d9900a0000000000000000000000000000000000000000000000000000000081526004016117a49190612b32565b60405180910390fd5b60405180604001604052808473ffffffffffffffffffffffffffffffffffffffff168152602001836bffffffffffffffffffffffff168152506000808201518160000160006101000a81548173ffffffffffffffffffffffffffffffffffffffff021916908373ffffffffffffffffffffffffffffffffffffffff16021790555060208201518160000160146101000a8154816bffffffffffffffffffffffff02191690836bffffffffffffffffffffffff160217905550905050505050565b600073ffffffffffffffffffffffffffffffffffffffff168273ffffffffffffffffffffffffffffffffffffffff16036118de57816040517f5b08ba180000000000000000000000000000000000000000000000000000000081526004016118d59190612b32565b60405180910390fd5b80600760008573ffffffffffffffffffffffffffffffffffffffff1673ffffffffffffffffffffffffffffffffffffffff16815260200190815260200160002060008473ffffffffffffffffffffffffffffffffffffffff1673ffffffffffffffffffffffffffffffffffffffff16815260200190815260200160002060006101000a81548160ff0219169083151502179055508173ffffffffffffffffffffffffffffffffffffffff168373ffffffffffffffffffffffffffffffffffffffff167f17307eab39ab6107e8899845ad3d59bd9653f200f220920489ca2b5937696c31836040516119cf91906129c1565b60405180910390a3505050565b60008373ffffffffffffffffffffffffffffffffffffffff163b1115611b8d578273ffffffffffffffffffffffffffffffffffffffff1663150b7a02611a2061147b565b8685856040518563ffffffff1660e01b8152600401611a429493929190613671565b6020604051808303816000875af1925050508015611a7e57506040513d601f19601f82011682018060405250810190611a7b91906136d2565b60015b611b02573d8060008114611aae576040519150601f19603f3d011682016040523d82523d6000602084013e611ab3565b606091505b506000815103611afa57836040517f64a0ae92000000000000000000000000000000000000000000000000000000008152600401611af19190612b32565b60405180910390fd5b805181602001fd5b63150b7a0260e01b7bffffffffffffffffffffffffffffffffffffffffffffffffffffffff1916817bffffffffffffffffffffffffffffffffffffffffffffffffffffffff191614611b8b57836040517f64a0ae92000000000000000000000000000000000000000000000000000000008152600401611b829190612b32565b60405180910390fd5b505b50505050565b6000634906490660e01b7bffffffffffffffffffffffffffffffffffffffffffffffffffffffff1916827bffffffffffffffffffffffffffffffffffffffffffffffffffffffff19161480611bed5750611bec82611f2f565b5b9050919050565b60006004600083815260200190815260200160002060009054906101000a900473ffffffffffffffffffffffffffffffffffffffff169050919050565b8080611c6a5750600073ffffffffffffffffffffffffffffffffffffffff168273ffffffffffffffffffffffffffffffffffffffff1614155b15611d9e576000611c7a846113b6565b9050600073ffffffffffffffffffffffffffffffffffffffff168373ffffffffffffffffffffffffffffffffffffffff1614158015611ce557508273ffffffffffffffffffffffffffffffffffffffff168173ffffffffffffffffffffffffffffffffffffffff1614155b8015611cf85750611cf6818461128a565b155b15611d3a57826040517fa9fbf51f000000000000000000000000000000000000000000000000000000008152600401611d319190612b32565b60405180910390fd5b8115611d9c57838573ffffffffffffffffffffffffffffffffffffffff168273ffffffffffffffffffffffffffffffffffffffff167f8c5be1e5ebec7d5bd14f71427d1e84f3dd0314c0f7b2291e5b200ac8c7c3b92560405160405180910390a45b505b836006600085815260200190815260200160002060006101000a81548173ffffffffffffffffffffffffffffffffffffffff021916908373ffffffffffffffffffffffffffffffffffffffff16021790555050505050565b611e008383611fa9565b611e0d60008484846119dc565b505050565b600080611e208585856120a2565b9050600073ffffffffffffffffffffffffffffffffffffffff168173ffffffffffffffffffffffffffffffffffffffff1603611e6457611e5f846122bc565b611ea3565b8473ffffffffffffffffffffffffffffffffffffffff168173ffffffffffffffffffffffffffffffffffffffff1614611ea257611ea18185612305565b5b5b600073ffffffffffffffffffffffffffffffffffffffff168573ffffffffffffffffffffffffffffffffffffffff1603611ee557611ee084612466565b611f24565b8473ffffffffffffffffffffffffffffffffffffffff168173ffffffffffffffffffffffffffffffffffffffff1614611f2357611f228585612537565b5b5b809150509392505050565b60007f780e9d63000000000000000000000000000000000000000000000000000000007bffffffffffffffffffffffffffffffffffffffffffffffffffffffff1916827bffffffffffffffffffffffffffffffffffffffffffffffffffffffff19161480611fa25750611fa1826125c2565b5b9050919050565b600073ffffffffffffffffffffffffffffffffffffffff168273ffffffffffffffffffffffffffffffffffffffff160361201b5760006040517f64a0ae920000000000000000000000000000000000000000000000000000000081526004016120129190612b32565b60405180910390fd5b60006120298383600061155f565b9050600073ffffffffffffffffffffffffffffffffffffffff168173ffffffffffffffffffffffffffffffffffffffff161461209d5760006040517f73c6ac6e0000000000000000000000000000000000000000000000000000000081526004016120949190612b32565b60405180910390fd5b505050565b6000806120ae84611bf4565b9050600073ffffffffffffffffffffffffffffffffffffffff168373ffffffffffffffffffffffffffffffffffffffff16146120f0576120ef8184866126a4565b5b600073ffffffffffffffffffffffffffffffffffffffff168173ffffffffffffffffffffffffffffffffffffffff161461218157612132600085600080611c31565b6001600560008373ffffffffffffffffffffffffffffffffffffffff1673ffffffffffffffffffffffffffffffffffffffff168152602001908152602001600020600082825403925050819055505b600073ffffffffffffffffffffffffffffffffffffffff168573ffffffffffffffffffffffffffffffffffffffff1614612204576001600560008773ffffffffffffffffffffffffffffffffffffffff1673ffffffffffffffffffffffffffffffffffffffff168152602001908152602001600020600082825401925050819055505b846004600086815260200190815260200160002060006101000a81548173ffffffffffffffffffffffffffffffffffffffff021916908373ffffffffffffffffffffffffffffffffffffffff160217905550838573ffffffffffffffffffffffffffffffffffffffff168273ffffffffffffffffffffffffffffffffffffffff167fddf252ad1be2c89b69c2b068fc378daa952ba7f163c4a11628f55a4df523b3ef60405160405180910390a4809150509392505050565b600a80549050600b600083815260200190815260200160002081905550600a81908060018154018082558091505060019003906000526020600020016000909190919091505550565b600061231083610ecd565b90506000600960008481526020019081526020016000205490508181146123f5576000600860008673ffffffffffffffffffffffffffffffffffffffff1673ffffffffffffffffffffffffffffffffffffffff168152602001908152602001600020600084815260200190815260200160002054905080600860008773ffffffffffffffffffffffffffffffffffffffff1673ffffffffffffffffffffffffffffffffffffffff168152602001908152602001600020600084815260200190815260200160002081905550816009600083815260200190815260200160002081905550505b6009600084815260200190815260200160002060009055600860008573ffffffffffffffffffffffffffffffffffffffff1673ffffffffffffffffffffffffffffffffffffffff16815260200190815260200160002060008381526020019081526020016000206000905550505050565b60006001600a8054905061247a91906136ff565b90506000600b60008481526020019081526020016000205490506000600a83815481106124aa576124a96134c1565b5b9060005260206000200154905080600a83815481106124cc576124cb6134c1565b5b906000526020600020018190555081600b600083815260200190815260200160002081905550600b600085815260200190815260200160002060009055600a80548061251b5761251a613733565b5b6001900381819060005260206000200160009055905550505050565b6000600161254484610ecd565b61254e91906136ff565b905081600860008573ffffffffffffffffffffffffffffffffffffffff1673ffffffffffffffffffffffffffffffffffffffff168152602001908152602001600020600083815260200190815260200160002081905550806009600084815260200190815260200160002081905550505050565b60007f80ac58cd000000000000000000000000000000000000000000000000000000007bffffffffffffffffffffffffffffffffffffffffffffffffffffffff1916827bffffffffffffffffffffffffffffffffffffffffffffffffffffffff1916148061268d57507f5b5e139f000000000000000000000000000000000000000000000000000000007bffffffffffffffffffffffffffffffffffffffffffffffffffffffff1916827bffffffffffffffffffffffffffffffffffffffffffffffffffffffff1916145b8061269d575061269c82612768565b5b9050919050565b6126af8383836127e2565b61276357600073ffffffffffffffffffffffffffffffffffffffff168373ffffffffffffffffffffffffffffffffffffffff160361272457806040517f7e27328900000000000000000000000000000000000000000000000000000000815260040161271b9190612bc8565b60405180910390fd5b81816040517f177e802f00000000000000000000000000000000000000000000000000000000815260040161275a929190612d28565b60405180910390fd5b505050565b60007f2a55205a000000000000000000000000000000000000000000000000000000007bffffffffffffffffffffffffffffffffffffffffffffffffffffffff1916827bffffffffffffffffffffffffffffffffffffffffffffffffffffffff191614806127db57506127da826128a3565b5b9050919050565b60008073ffffffffffffffffffffffffffffffffffffffff168373ffffffffffffffffffffffffffffffffffffffff161415801561289a57508273ffffffffffffffffffffffffffffffffffffffff168473ffffffffffffffffffffffffffffffffffffffff16148061285b575061285a848461128a565b5b8061289957508273ffffffffffffffffffffffffffffffffffffffff166128818361143e565b73ffffffffffffffffffffffffffffffffffffffff16145b5b90509392505050565b60007f01ffc9a7000000000000000000000000000000000000000000000000000000007bffffffffffffffffffffffffffffffffffffffffffffffffffffffff1916827bffffffffffffffffffffffffffffffffffffffffffffffffffffffff1916149050919050565b6000604051905090565b600080fd5b600080fd5b60007fffffffff0000000000000000000000000000000000000000000000000000000082169050919050565b61295681612921565b811461296157600080fd5b50565b6000813590506129738161294d565b92915050565b60006020828403121561298f5761298e612917565b5b600061299d84828501612964565b91505092915050565b60008115159050919050565b6129bb816129a6565b82525050565b60006020820190506129d660008301846129b2565b92915050565b600081519050919050565b600082825260208201905092915050565b60005b83811015612a165780820151818401526020810190506129fb565b60008484015250505050565b6000601f19601f8301169050919050565b6000612a3e826129dc565b612a4881856129e7565b9350612a588185602086016129f8565b612a6181612a22565b840191505092915050565b60006020820190508181036000830152612a868184612a33565b905092915050565b6000819050919050565b612aa181612a8e565b8114612aac57600080fd5b50565b600081359050612abe81612a98565b92915050565b600060208284031215612ada57612ad9612917565b5b6000612ae884828501612aaf565b91505092915050565b600073ffffffffffffffffffffffffffffffffffffffff82169050919050565b6000612b1c82612af1565b9050919050565b612b2c81612b11565b82525050565b6000602082019050612b476000830184612b23565b92915050565b612b5681612b11565b8114612b6157600080fd5b50565b600081359050612b7381612b4d565b92915050565b60008060408385031215612b9057612b8f612917565b5b6000612b9e85828601612b64565b9250506020612baf85828601612aaf565b9150509250929050565b612bc281612a8e565b82525050565b6000602082019050612bdd6000830184612bb9565b92915050565b600080fd5b600080fd5b600080fd5b60008083601f840112612c0857612c07612be3565b5b8235905067ffffffffffffffff811115612c2557612c24612be8565b5b602083019150836001820283011115612c4157612c40612bed565b5b9250929050565b60008060208385031215612c5f57612c5e612917565b5b600083013567ffffffffffffffff811115612c7d57612c7c61291c565b5b612c8985828601612bf2565b92509250509250929050565b600080600060608486031215612cae57612cad612917565b5b6000612cbc86828701612b64565b9350506020612ccd86828701612b64565b9250506040612cde86828701612aaf565b9150509250925092565b60008060408385031215612cff57612cfe612917565b5b6000612d0d85828601612aaf565b9250506020612d1e85828601612aaf565b9150509250929050565b6000604082019050612d3d6000830185612b23565b612d4a6020830184612bb9565b9392505050565b600060208284031215612d6757612d66612917565b5b6000612d7584828501612b64565b91505092915050565b60006bffffffffffffffffffffffff82169050919050565b612d9f81612d7e565b8114612daa57600080fd5b50565b600081359050612dbc81612d96565b92915050565b60008060408385031215612dd957612dd8612917565b5b6000612de785828601612b64565b9250506020612df885828601612dad565b9150509250929050565b612e0b816129a6565b8114612e1657600080fd5b50565b600081359050612e2881612e02565b92915050565b60008060408385031215612e4557612e44612917565b5b6000612e5385828601612b64565b9250506020612e6485828601612e19565b9150509250929050565b600080fd5b7f4e487b7100000000000000000000000000000000000000000000000000000000600052604160045260246000fd5b612eab82612a22565b810181811067ffffffffffffffff82111715612eca57612ec9612e73565b5b80604052505050565b6000612edd61290d565b9050612ee98282612ea2565b919050565b600067ffffffffffffffff821115612f0957612f08612e73565b5b612f1282612a22565b9050602081019050919050565b82818337600083830152505050565b6000612f41612f3c84612eee565b612ed3565b905082815260208101848484011115612f5d57612f5c612e6e565b5b612f68848285612f1f565b509392505050565b600082601f830112612f8557612f84612be3565b5b8135612f95848260208601612f2e565b91505092915050565b60008060008060808587031215612fb857612fb7612917565b5b6000612fc687828801612b64565b9450506020612fd787828801612b64565b9350506040612fe887828801612aaf565b925050606085013567ffffffffffffffff8111156130095761300861291c565b5b61301587828801612f70565b91505092959194509250565b6000806040838503121561303857613037612917565b5b600061304685828601612b64565b925050602061305785828601612b64565b9150509250929050565b7f4e487b7100000000000000000000000000000000000000000000000000000000600052602260045260246000fd5b600060028204905060018216806130a857607f821691505b6020821081036130bb576130ba613061565b5b50919050565b7f4e487b7100000000000000000000000000000000000000000000000000000000600052601160045260246000fd5b60006130fb82612a8e565b91507fffffffffffffffffffffffffffffffffffffffffffffffffffffffffffffffff820361312d5761312c6130c1565b5b600182019050919050565b600060408201905061314d6000830185612bb9565b61315a6020830184612b23565b9392505050565b600082905092915050565b60008190508160005260206000209050919050565b60006020601f8301049050919050565b600082821b905092915050565b6000600883026131ce7fffffffffffffffffffffffffffffffffffffffffffffffffffffffffffffffff82613191565b6131d88683613191565b95508019841693508086168417925050509392505050565b6000819050919050565b600061321561321061320b84612a8e565b6131f0565b612a8e565b9050919050565b6000819050919050565b61322f836131fa565b61324361323b8261321c565b84845461319e565b825550505050565b600090565b61325861324b565b613263818484613226565b505050565b5b818110156132875761327c600082613250565b600181019050613269565b5050565b601f8211156132cc5761329d8161316c565b6132a684613181565b810160208510156132b5578190505b6132c96132c185613181565b830182613268565b50505b505050565b600082821c905092915050565b60006132ef600019846008026132d1565b1980831691505092915050565b600061330883836132de565b9150826002028217905092915050565b6133228383613161565b67ffffffffffffffff81111561333b5761333a612e73565b5b6133458254613090565b61335082828561328b565b6000601f83116001811461337f576000841561336d578287013590505b61337785826132fc565b8655506133df565b601f19841661338d8661316c565b60005b828110156133b557848901358255600182019150602085019450602081019050613390565b868310156133d257848901356133ce601f8916826132de565b8355505b6001600288020188555050505b50505050505050565b60006060820190506133fd6000830186612b23565b61340a6020830185612bb9565b6134176040830184612b23565b949350505050565b600061342a82612a8e565b915061343583612a8e565b925082820261344381612a8e565b9150828204841483151761345a576134596130c1565b5b5092915050565b7f4e487b7100000000000000000000000000000000000000000000000000000000600052601260045260246000fd5b600061349b82612a8e565b91506134a683612a8e565b9250826134b6576134b5613461565b5b828204905092915050565b7f4e487b7100000000000000000000000000000000000000000000000000000000600052603260045260246000fd5b6134f9826129dc565b67ffffffffffffffff81111561351257613511612e73565b5b61351c8254613090565b61352782828561328b565b600060209050601f83116001811461355a5760008415613548578287015190505b61355285826132fc565b8655506135ba565b601f1984166135688661316c565b60005b828110156135905784890151825560018201915060208501945060208101905061356b565b868310156135ad57848901516135a9601f8916826132de565b8355505b6001600288020188555050505b505050505050565b60006135dd6135d86135d384612d7e565b6131f0565b612a8e565b9050919050565b6135ed816135c2565b82525050565b600060408201905061360860008301856135e4565b6136156020830184612bb9565b9392505050565b600081519050919050565b600082825260208201905092915050565b60006136438261361c565b61364d8185613627565b935061365d8185602086016129f8565b61366681612a22565b840191505092915050565b60006080820190506136866000830187612b23565b6136936020830186612b23565b6136a06040830185612bb9565b81810360608301526136b28184613638565b905095945050505050565b6000815190506136cc8161294d565b92915050565b6000602082840312156136e8576136e7612917565b5b60006136f6848285016136bd565b91505092915050565b600061370a82612a8e565b915061371583612a8e565b925082820390508181111561372d5761372c6130c1565b5b92915050565b7f4e487b7100000000000000000000000000000000000000000000000000000000600052603160045260246000fdfea2646970667358221220272bb0235f2d5a3d6c92212433dfb6b5d766d35faa89af05d3896c389d975e2e64736f6c63430008160033",
  "linkReferences": {},
  "deployedLinkReferences": {}
}